:020000040000fa
:080000000002040000000000f2
:020000040000fa
:100008009402000094020000940200009402000090
:100018009402000094020000940200009402000080
:100028009402000094020000940200001a030000e9
:100038009402000094020000940200009402000060
:100048009402000094020000940200009402000050
:100058009402000094020000940200009402000040
:10006800940200009402000094020000340300008f
:100078009402000094020000940200009402000020
:100088009402000094020000940200009402000010
:100098009402000094020000940200009402000000
:1000a80094020000940200009402000094020000f0
:1000b80094020000940200009402000094020000e0
:1000c80094020000940200009402000094020000d0
:1000d80094020000940200009402000094020000c0
:1000e80094020000940200009402000094020000b0
:1000f80094020000940200009402000094020000a0
:10010800940200009402000094020000940200008f
:10011800940200009402000094020000940200007f
:10012800940200009402000094020000940200006f
:10013800940200009402000094020000940200005f
:10014800940200009402000094020000940200004f
:10015800940200009402000094020000940200003f
:10016800940200009402000094020000940200002f
:10017800940200009402000094020000940200001f
:10018800940200009402000094020000940200000f
:1001980094020000940200009402000094020000ff
:1001a80094020000940200009402000094020000ef
:1001b80094020000940200009402000094020000df
:1001c80094020000940200009402000094020000cf
:1001d80094020000940200009402000094020000bf
:1001e80094020000940200009402000094020000af
:0801f8009402000094020000d3
:020000040000fa
:10020800940200009402000094020000940200008e
:10021800940200009402000094020000940200007e
:100228009402000094020000940200001a030000e7
:10023800940200009402000094020000940200005e
:10024800940200009402000094020000940200004e
:10025800940200009402000094020000940200003e
:10026800940200009402000094020000340300008d
:10027800940200009402000094020000940200001e
:10028800940200009402000094020000940200000e
:1002980094020000940200009402000094020000fe
:1002a80094020000940200009402000094020000ee
:1002b80094020000940200009402000094020000de
:1002c80094020000940200009402000094020000ce
:1002d80094020000940200009402000094020000be
:1002e80094020000940200009402000094020000ae
:1002f800940200009402000094020000940200009e
:10030800940200009402000094020000940200008d
:10031800940200009402000094020000940200007d
:10032800940200009402000094020000940200006d
:10033800940200009402000094020000940200005d
:10034800940200009402000094020000940200004d
:10035800940200009402000094020000940200003d
:10036800940200009402000094020000940200002d
:10037800940200009402000094020000940200001d
:10038800940200009402000094020000940200000d
:1003980094020000940200009402000094020000fd
:1003a80094020000940200009402000094020000ed
:1003b80094020000940200009402000094020000dd
:1003c80094020000940200009402000094020000cd
:1003d80094020000940200009402000094020000bd
:1003e80094020000940200009402000094020000ad
:0803f8009402000094020000d1
:020000040000fa
:100400004f8020000e7f22000e01880000000000b7
:1004100000012000200288000c000700804c200012
:100420000100200011000700000020000000e00093
:1004300002003200000002000000000098020200ea
:10044000000000000040da000000fe004440a90067
:10045000000020000000e000030032000000200047
:10046000a00188004440a800000006009101880017
:10047000800078000000eb0015003700e2804000ab
:1004800032a0b4009101ba00e280400032a0b40072
:100490009102ba00e280400032a0b4000002eb00fa
:1004a000472bde00f507b200602ce10004003a00a3
:1004b0000059eb008301e900fdff3e000400370016
:1004c0006128e100010032000082eb000400070017
:1004d0001101ba000200e000e8ff3a000000060047
:1004e0003159ba008301e9000c0032002159ba00e9
:1004f0008301e900080032000400e00003003a0034
:10050000e280400032a0b400f5ff370011d9ba00f4
:100510008301e900faff3a008100e800e180400031
:1005200032a0b400000006000040da000000fe0027
:020000040000fa
:100530000000fa00cf000700e0000700d800070025
:100540000002eb00044088000100370000000000ba
:1005500004408000050020007600200007002000f5
:10056000860f5200878f5a00f8ff3e00046001009a
:10057000070037000d0037000f0037001500370067
:10058000170037001d0037001f0037002500370017
:1005900040002000d50007000002eb00040888009e
:1005a0000002eb00144088002100370040002000ca
:1005b000ce0007001e00370050002000cb000700cf
:1005c0000002eb00040888000002eb0014408800e1
:1005d0001700370050002000c40007001400370047
:1005e00060002000c10007000002eb000408880042
:1005f0000002eb00144088000d003700600020006e
:10060000ba0007000a00370070002000b70007009a
:100610000002eb00040888000002eb001440880090
:100620000300370070002000b00007000000000049
:10063000c7ff3700841f78003400f8000400200052
:10064000a40188000000fa008460a9001440800022
:100650000402e800144088000080fa003400f90029
:100660004f02780000400600849fbe00869fbe00b7
:100670003400f80004002000a40188000000fa0003
:100680008660a9000440800005002000760020005c
:1006900007002000860f5200878f5a0070003e002e
:1006a00004600100070037000e0037001b00370010
:1006b000220037002f003700360037004300370094
:1006c0004a003700551680000402200004826200b0
:1006d000e00f520053003a0014002000044088004c
:1006e0005f0037005516800004022000048262007b
:1006f000e00f52004d00320014408000f30f520012
:1007000003003c002400200004408800540037000f
:100710006400200004408800510037005516800016
:100720000402200004826200e00f520041003a00ff
:10073000340020000440880049003700551680002e
:100740000402200004826200e00f52003b003200ed
:1007500014408000f30f520003003c0044002000ce
:10076000044088003e0037000002eb00044088008f
:100770003b0037005516800004022000048262000e
:10078000e00f52002f003a0054002000044088007f
:1007900033003700551680000402200004826200f6
:1007a000e00f52002900320014408000f30f520085
:1007b00003003c006400200004408800280037004b
:1007c00024002000044088002500370055168000d2
:1007d0000402200004826200e00f52001d003a0073
:1007e00074002000044088001d003700551680006a
:1007f0000402200004826200e00f52001700320061
:1008000014408000f30f520003003c000002eb0094
:100810000440880012003700440020000440880093
:100820000f003700000000000d003700000000003e
:100830000b00370000000000090037000000000036
:10084000070037000000000005003700000000002e
:100850000300370000000000010037000000000026
:100860000080fa003400f9004f03be004f02be00c2
:10087000004006000000fa00c9e2a900c9c2a900b0
:10088000c9a2a900c982a900cde2a800cdc2a800d2
:10089000cda2a800cd82a8000080fa0000000600ca
:1008a0000000fa00c8a2a8008660a9009660a8000f
:1008b0006360a8000080fa00000006000000fa0053
:1008c000240880000440a0000450a00024088800f0
:1008d00005e1a8009460a8008460a900f4672100e5
:1008e000140888000080fa00000006000200fa00e8
:1008f000000f78001e0278006123b900c4ff2f00aa
:10090000f5ff2f000602420087824a0036002000d1
:1009100007002000860f5200878f5a0019003e0002
:100920000460010003003700070037000b003700a8
:100930000f003700cde2a900cdc2a800cda2a800cb
:10094000cd82a80010003700cde2a800cdc2a900da
:10095000cda2a800cd82a8000b003700cde2a800f0
:10096000cdc2a800cda2a900cd82a8000600370004
:10097000cde2a800cdc2a800cda2a800cd82a900da
:1009800001003700000000000080fa0000000600af
:020000040000fa
:10099000000800000400000000000000000000004b
:020000040000fa
:020000040001f9
:0457f800ad7b000085
:020000040000fa
:020000040001f9
:0457fc003f3f00002b
:00000001FF
